:100000000C9463000C94ED000C941A010C948B007A
:100010000C948B000C948B000C948B000C945B055F
:100020000C948B000C948B000C948B000C948B0024
:100030000C948B000C948B000C948B000C948B0014
:100040000C9447010C948B000C94A4060C948B0028
:100050000C948B000C948B000C948B000C948B00F4
:100060000C948B000C948B000000000024002700EF
:100070002A0000000000250028002B0000000000DE
:1000800023002600290004040404040404040202DA
:100090000202020203030303030301020408102007
:1000A0004080010204081020010204081020000012
:1000B0000007000201000003040600000000000029
:1000C00000000200BB0711241FBECFEFD8E0DEBF47
:1000D000CDBF11E0A0E0B1E0E0E0F1E102C00590A9
:1000E0000D92A431B107D9F711E0A4E1B1E001C04C
:1000F0001D92AD3CB107E1F710E0C6ECD0E004C0C2
:100100002297FE010E947A08C43CD107C9F70E94D9
:10011000E6000C947E080C9400008AEB91E040E825
:1001200055E260E070E00E94CC060895AF92BF9265
:10013000CF92DF92EF92FF920F931F93CF93DF93B3
:100140008EE00E94EE01EC018AEB91E0BE014AE0F4
:1001500050E00E94170300D000D0BE01882777FD31
:100160008095982F28EE33E040E050E0EDB7FEB7E1
:10017000218332834383548320E931E040E050E01F
:10018000F8EEEF2EF3E0FF2E012D112DE4E6AE2E5A
:10019000B12CC12CD12C0E94C0059B01AC010F9049
:1001A0000F900F900F9088E0B9012AE030E040E016
:1001B00050E00E942A03DF91CF911F910F91FF9091
:1001C000EF90DF90CF90BF90AF9008950E948F0185
:1001D0000E948D000E949600FDCF1F920F920FB6D5
:1001E0000F9211242F933F934F935F936F937F93BD
:1001F0008F939F93AF93BF93EF93FF9380911401DD
:1002000090911501009729F0E0911401F0911501EA
:100210000995FF91EF91BF91AF919F918F917F9140
:100220006F915F914F913F912F910F900FBE0F9063
:100230001F9018951F920F920FB60F9211242F93B3
:100240003F934F935F936F937F938F939F93AF935E
:10025000BF93EF93FF938091160190911701009740
:1002600029F0E0911601F09117010995FF91EF91A6
:10027000BF91AF919F918F917F916F915F914F91BE
:100280003F912F910F900FBE0F901F9018951F92C6
:100290000F920FB60F9211242F933F938F939F933A
:1002A000AF93BF9380911C0190911D01A0911E01FD
:1002B000B0911F01309120010196A11DB11D232F86
:1002C0002D5F2D3720F02D570196A11DB11D2093D4
:1002D000200180931C0190931D01A0931E01B093F7
:1002E0001F018091180190911901A0911A01B091FC
:1002F0001B010196A11DB11D809318019093190156
:10030000A0931A01B0931B01BF91AF919F918F9160
:100310003F912F910F900FBE0F901F9018957894DA
:1003200084B5826084BD84B5816084BD85B58260FA
:1003300085BD85B5816085BDEEE6F0E08081816098
:100340008083E1E8F0E01082808182608083808198
:1003500081608083E0E8F0E0808181608083E1EB70
:10036000F0E0808184608083E0EBF0E08081816058
:100370008083EAE7F0E0808184608083808182600E
:1003800080838081816080838081806880831092F7
:10039000C100089590E0FC01E656FF4F2491FC0156
:1003A000EA57FF4FE491EE23C1F0F0E0EE0FFF1F9C
:1003B000E859FF4F85919491DC01662341F49FB782
:1003C000F8948C91209582238C939FBF08959FB7BA
:1003D000F8948C91822B8C939FBF08958E3008F0F7
:1003E0008E508770909100019295990F990F907C93
:1003F000982B90937C0080917A00806480937A009F
:1004000080917A0086FDFCCF2091780030917900B0
:10041000932F80E030E0282B392BC90108950F93EA
:100420001F93CF93DF93EC01062F172F07C0E881AE
:10043000F9810190F081E02DCE010995F8016191DB
:100440008F016623A1F7DF91CF911F910F9108953E
:10045000EF92FF920F931F93CF93DF937C01EB01F9
:100460008A010BC06991D701ED91FC910190F08157
:10047000E02DC7010995015010400115110591F7B4
:10048000DF91CF911F910F91FF90EF9008956F92A0
:100490007F928F929F92AF92BF92CF92DF92EF9214
:1004A000FF920F931F93DF93CF93CDB7DEB7A09743
:1004B0000FB6F894DEBF0FBECDBF5C01CB01BA0111
:1004C000611571058105910551F4C50140E350E0C6
:1004D00060E070E020E030E00E94CA0246C06E0199
:1004E0000894C11CD11CEE24FF248701622E7724BE
:1004F00088249924A40193010E942708F60161939E
:100500006F010894E11CF11C011D111DB901CA0104
:10051000611571058105910569F7D801C70101973A
:10052000A109B1096E010894C11CD11CC80ED91EC5
:1005300017C0F60140814A3010F4405D01C0495CAB
:1005400050E060E070E0C50120E030E00E94CA02A7
:100550000894E108F108010911090894C108D108BB
:10056000E114F1040105110521F7A0960FB6F894E6
:10057000DEBF0FBECDBFCF91DF911F910F91FF90D6
:10058000EF90DF90CF90BF90AF909F908F907F9033
:100590006F900895EF92FF920F931F93CF93DF9385
:1005A000EC017A018B012115310541F4E881F981D3
:1005B0000190F081E02D642F09951BC02A30310590
:1005C000B1F477FF10C04DE250E060E070E020E051
:1005D00030E00E94CA0210950095F094E094E11C6E
:1005E000F11C011D111DCE01B801A7012AE00E94D6
:1005F0004702DF91CF911F910F91FF90EF900895E7
:10060000CF93DF93EC014DE050E060E070E020E03C
:1006100030E00E94CA02CE014AE050E060E070E0A3
:1006200020E030E00E94CA02DF91CF910895CF937D
:10063000DF93EC019A01CB01AC01662757FD609571
:10064000762FCE010E94CA02CE010E940003DF91E4
:10065000CF9108952F923F924F925F926F927F9227
:100660008F929F92AF92BF92DF92EF92FF920F9381
:100670001F93DF93CF9300D000D0CDB7DEB71B011F
:1006800029833A834B835C8390910101981721F071
:100690009F3F09F0D9C104C0E2ECF0E0D4907DC0E6
:1006A00080930101E2ECF0E0D4909D2D9F3F09F48E
:1006B000CBC1913031F1923009F449C0DD2009F00D
:1006C0006CC014BC15BC94B5926094BD95B5916096
:1006D00095BD282F30E0F901EA57FF4FE491F0E093
:1006E000EE0FFF1FEE58FF4F4591549140932501A7
:1006F0005093260126563F4FF9012491209327015C
:100700004EC01092800010928100909181009860FC
:100710009093810090918100916090938100282FA7
:1007200030E0F901EA57FF4FE491F0E0EE0FFF1FD0
:10073000EE58FF4F4591549140932C0150932D0159
:1007400026563F4FF901249120932E0128C0109284
:10075000B0001092B1009091B00092609093B00000
:100760009091B10091609093B100282F30E0F90191
:10077000EA57FF4FE491F0E0EE0FFF1FEE58FF4FF6
:1007800045915491409333015093340126563F4F85
:10079000F90124912093350102C0D7FC55C161E0D5
:1007A0000E94CA01DD2021F0FD2DF23009F0C1C008
:1007B0004101AA24BB2460E072E18AE790E0A50130
:1007C00094010E94490829013A0179018A0108949B
:1007D000E108F108010911098FEFE816F10401059C
:1007E000110509F008F498C060E472E48FE090E02D
:1007F000A50194010E94490879018A010894E10841
:10080000F108010911099D2D9230C9F4AFEFEA16E4
:10081000F1040105110509F008F485C060E970EDE7
:1008200083E090E0A50194010E94490879018A01C2
:100830000894E108F1080109110983E001C082E090
:10084000BFEFEB16F1040105110509F008F465C0CE
:1008500068E478EE81E090E0A50194010E944908E7
:1008600079018A010894E108F10801091109DD20E4
:10087000E1F0ED2DE230D9F4FFEFEF16F1040105C0
:10088000110509F008F451C064E274EF80E090E0D3
:10089000A50194010E94490879018A010894E108A0
:1008A000F1080109110985E003C083E001C084E07B
:1008B0009FEFE916F1040105110579F170F162E18C
:1008C0007AE780E090E0A50194010E94490879014F
:1008D0008A010894E108F10801091109DD2011F4E9
:1008E00084E001C086E0AFEFEA16F10401051105CE
:1008F000A1F098F0830172019AE015950795F7949D
:10090000E7949A95D1F70894E108F10801091109D3
:10091000DD2031F087E00AC081E0DD2011F006C063
:1009200085E085BD3CC082E001C084E08093B100D9
:1009300036C04101AA24BB2460E072E18AE790E05E
:10094000A50194010E94490879018A010894E108EF
:10095000F10801091109B0E0EB16B0E0FB06B1E0C7
:100960000B07B0E01B0788F068E478EE81E090E0C8
:10097000A50194010E94490879018A010894E108BF
:10098000F1080109110993E001C091E0ED2DE1307A
:1009900031F480918100887F892B80938100898147
:1009A0009A81AB81BC810097A105B10591F0B1019D
:1009B000660F771F80E090E029813A814B815C814E
:1009C0000E94F50728EE33E040E050E00E9427083F
:1009D00004C02FEF3FEF4FEF5FEF9D2D913099F067
:1009E000923019F1DD2081F5E7BC2093210130938D
:1009F0002201409323015093240180916E00826074
:100A000080936E0021C0F0928900E09288002093CC
:100A100028013093290140932A0150932B018091A2
:100A20006F00826080936F000FC0E092B30020934C
:100A30002F01309330014093310150933201809166
:100A400070008260809370000F900F900F900F9055
:100A5000CF91DF911F910F91FF90EF90DF90BF90AA
:100A6000AF909F908F907F906F905F904F903F904E
:100A70002F900895813041F0813018F08230D1F408
:100A800009C010926E00089580916F008D7F809351
:100A90006F000895809170008D7F8093700081E0D9
:100AA0008093B0008091B100887F84608093B10012
:100AB0001092B30008951F920F920FB60F92112457
:100AC0002F933F934F935F936F937F938F939F9356
:100AD000AF93BF93EF93FF9380912F0190913001DB
:100AE000A0913101B09132010097A105B10551F1FA
:100AF000E0913301F0913401808190913501892793
:100B0000808380912F0190913001A0913101B091AB
:100B10003201181619061A061B060CF580912F01D2
:100B200090913001A0913101B09132010197A1095A
:100B3000B10980932F0190933001A0933101B093BC
:100B400032010DC082E00E943A05E0913301F0913C
:100B50003401908180913501809589238083FF91B4
:100B6000EF91BF91AF919F918F917F916F915F9125
:100B70004F913F912F910F900FBE0F901F9018959E
:100B80002F923F924F925F926F927F928F929F929D
:100B9000AF92BF92CF92DF92EF92FF920F931F938B
:100BA000DF93CF93CDB7DEB73B014C0119012A018A
:100BB0006D897E898F89988D6A197B098C099D09B9
:100BC000621A730A840A950AA40193010E94F50728
:100BD000E218F30804091509A80197010E944908C1
:100BE0002A0D3B1D4C1D5D1DB901CA01CF91DF913E
:100BF0001F910F91FF90EF90DF90CF90BF90AF903B
:100C00009F908F907F906F905F904F903F902F902C
:100C10000895FC0122813381F901E058FF4F808162
:100C2000918180589F4F2E573F4FF901208131818C
:100C3000821B930B60E870E00E9414080895FC0189
:100C400082819381FC01EE57FF4F20813181FC01AD
:100C5000E058FF4F408151814217530731F0820F16
:100C6000931FFC01208130E002C02FEF3FEFC9014C
:100C70000895DC0112962D913C911397F901EE57DE
:100C8000FF4F80819181D901A058BF4F4D915C9158
:100C900011974817590769F0280F391FD9012C916E
:100CA000019660E870E00E9414089183808330E030
:100CB00002C02FEF3FEFC9010895DC0112968D911C
:100CC0009C911397FC01E058FF4F8E579F4FDC011A
:100CD0008D919C911197918380830895FC01A0854B
:100CE000B18521898C9190E0022E02C0959587955F
:100CF0000A94E2F780FFF6CF0484F585E02D608347
:100D000008951F93CF93DF93182F9B01EB01C058D9
:100D1000DF4FE881F981CF01019660E870E00E9421
:100D20001408AC01D901AE57BF4F8D919C9111971A
:100D30004817590729F0E20FF31F1083598348839E
:100D4000DF91CF911F9108951F920F920FB60F92CE
:100D500011242F933F934F935F936F937F938F93C0
:100D60009F93AF93BF93EF93FF938091C60066E389
:100D700071E00E948106FF91EF91BF91AF919F9129
:100D80008F917F916F915F914F913F912F910F9034
:100D90000FBE0F901F9018958F929F92AF92BF92A7
:100DA000DF92EF92FF920F931F93CF93DF93EC01AB
:100DB0007A018B01413482E458078FE0680780E0B4
:100DC00078070CF07DC060E874E88EE190E0A8013F
:100DD00097010E9449082150304040405040CA01CC
:100DE000B90122E030E040E050E00E9449084901AA
:100DF0005A01209530954095509594E0220F331F6D
:100E0000441F551F9A95D1F760E074E284EF90E09B
:100E10000E944908CA01B9012FEF30E040E050E0DC
:100E20000E94F507A80197010E944908C901815055
:100E30009F4F181619061CF4D22EDA9403C0DD2435
:100E4000D394D21A60E079E08DE390E0A801970195
:100E50000E9449082150304040405040CA01B90129
:100E600022E030E040E050E00E94490820953095B3
:100E70004095509583E0220F331F441F551F8A95DC
:100E8000D1F760E074E284EF90E00E944908CA0163
:100E9000B9012FEF30E040E050E00E94F507A801D3
:100EA00097010E944908C90181509F4F18161906E1
:100EB0001CF4822F815002C081E0821B8D1500F549
:100EC000E885F98581E090E00A8802C0880F991FC3
:100ED0000A94E2F7808360E079E08DE390E0A80176
:100EE00097010E9449082150304040405040CA01BB
:100EF000B90122E030E040E050E00E94490804C01F
:100F0000E885F98510829401EC81FD813083EE81C2
:100F1000FF812083EA85FB85408181E090E09C0190
:100F20000E8402C0220F331F0A94E2F7422B408343
:100F3000EA85FB8540819C010F8402C0220F331F8C
:100F40000A94E2F7422B4083EA85FB8520810888DA
:100F500002C0880F991F0A94E2F7282B2083DF91A3
:100F6000CF911F910F91FF90EF90DF90BF90AF90C6
:100F70009F908F90089586E091E09093BB018093BD
:100F8000BA0186E391E09093BD018093BC0185ECAA
:100F900090E09093BF018093BE0184EC90E0909329
:100FA000C1018093C00180EC90E09093C3018093D5
:100FB000C20181EC90E09093C5018093C40186EC5E
:100FC00090E09093C7018093C60184E08093C801AC
:100FD00083E08093C90187E08093CA0185E0809314
:100FE000CB0181E08093CC010895629FD001739F73
:100FF000F001829FE00DF11D649FE00DF11D929FB5
:10100000F00D839FF00D749FF00D659FF00D9927F3
:10101000729FB00DE11DF91F639FB00DE11DF91F17
:10102000BD01CF011124089597FB092E07260AD090
:1010300077FD04D049D006D000201AF47095619550
:101040007F4F0895F6F7909581959F4F0895A1E2FF
:101050001A2EAA1BBB1BFD010DC0AA1FBB1FEE1F32
:10106000FF1FA217B307E407F50720F0A21BB30B7D
:10107000E40BF50B661F771F881F991F1A9469F7F9
:1010800060957095809590959B01AC01BD01CF0155
:10109000089597FB092E05260ED057FD04D0D7DF03
:1010A0000AD0001C38F450954095309521953F4F5B
:1010B0004F4F5F4F0895F6F7909580957095619525
:1010C0007F4F8F4F9F4F0895AA1BBB1B51E107C055
:1010D000AA1FBB1FA617B70710F0A61BB70B881FC8
:1010E000991F5A95A9F780959095BC01CD01089557
:1010F000EE0FFF1F0590F491E02D0994F894FFCFB7
:1011000001FF000000006E060F02280209063906E2
:041110005D061F0653
:00000001FF
